{
	"MyContract101.sol": {
		"MyContract101": {
			"abi": [
				{
					"inputs": [],
					"name": "changeBool",
					"outputs": [
						{
							"internalType": "bool",
							"name": "",
							"type": "bool"
						}
					],
					"stateMutability": "nonpayable",
					"type": "function"
				},
				{
					"inputs": [],
					"name": "changeTestB",
					"outputs": [
						{
							"internalType": "uint8",
							"name": "",
							"type": "uint8"
						}
					],
					"stateMutability": "nonpayable",
					"type": "function"
				},
				{
					"inputs": [],
					"name": "testA",
					"outputs": [
						{
							"internalType": "bool",
							"name": "",
							"type": "bool"
						}
					],
					"stateMutability": "view",
					"type": "function"
				},
				{
					"inputs": [],
					"name": "testB",
					"outputs": [
						{
							"internalType": "uint8",
							"name": "",
							"type": "uint8"
						}
					],
					"stateMutability": "view",
					"type": "function"
				}
			],
			"devdoc": {
				"kind": "dev",
				"methods": {},
				"version": 1
			},
			"evm": {
				"assembly": "    /* \"MyContract101.sol\":60:324  contract MyContract101 {... */\n  mstore(0x40, 0x80)\n  callvalue\n  dup1\n  iszero\n  tag_1\n  jumpi\n  0x00\n  dup1\n  revert\ntag_1:\n  pop\n  dataSize(sub_0)\n  dup1\n  dataOffset(sub_0)\n  0x00\n  codecopy\n  0x00\n  return\nstop\n\nsub_0: assembly {\n        /* \"MyContract101.sol\":60:324  contract MyContract101 {... */\n      mstore(0x40, 0x80)\n      callvalue\n      dup1\n      iszero\n      tag_1\n      jumpi\n      0x00\n      dup1\n      revert\n    tag_1:\n      pop\n      jumpi(tag_2, lt(calldatasize, 0x04))\n      shr(0xe0, calldataload(0x00))\n      dup1\n      0x5de24c67\n      eq\n      tag_3\n      jumpi\n      dup1\n      0x71dd626b\n      eq\n      tag_4\n      jumpi\n      dup1\n      0x925ea78d\n      eq\n      tag_5\n      jumpi\n      dup1\n      0xae5e3e19\n      eq\n      tag_6\n      jumpi\n    tag_2:\n      0x00\n      dup1\n      revert\n        /* \"MyContract101.sol\":149:228  function changeBool() public returns (bool){... */\n    tag_3:\n      tag_7\n      tag_8\n      jump\t// in\n    tag_7:\n      mload(0x40)\n      tag_9\n      swap2\n      swap1\n      tag_10\n      jump\t// in\n    tag_9:\n      mload(0x40)\n      dup1\n      swap2\n      sub\n      swap1\n      return\n        /* \"MyContract101.sol\":92:109  bool public testA */\n    tag_4:\n      tag_11\n      tag_12\n      jump\t// in\n    tag_11:\n      mload(0x40)\n      tag_13\n      swap2\n      swap1\n      tag_10\n      jump\t// in\n    tag_13:\n      mload(0x40)\n      dup1\n      swap2\n      sub\n      swap1\n      return\n        /* \"MyContract101.sol\":116:134  uint8 public testB */\n    tag_5:\n      tag_14\n      tag_15\n      jump\t// in\n    tag_14:\n      mload(0x40)\n      tag_16\n      swap2\n      swap1\n      tag_17\n      jump\t// in\n    tag_16:\n      mload(0x40)\n      dup1\n      swap2\n      sub\n      swap1\n      return\n        /* \"MyContract101.sol\":236:319  function changeTestB() public returns (uint8) {... */\n    tag_6:\n      tag_18\n      tag_19\n      jump\t// in\n    tag_18:\n      mload(0x40)\n      tag_20\n      swap2\n      swap1\n      tag_17\n      jump\t// in\n    tag_20:\n      mload(0x40)\n      dup1\n      swap2\n      sub\n      swap1\n      return\n        /* \"MyContract101.sol\":149:228  function changeBool() public returns (bool){... */\n    tag_8:\n        /* \"MyContract101.sol\":187:191  bool */\n      0x00\n        /* \"MyContract101.sol\":216:220  true */\n      0x01\n        /* \"MyContract101.sol\":208:213  testA */\n      0x00\n      dup1\n        /* \"MyContract101.sol\":208:220  testA = true */\n      0x0100\n      exp\n      dup2\n      sload\n      dup2\n      0xff\n      mul\n      not\n      and\n      swap1\n      dup4\n      iszero\n      iszero\n      mul\n      or\n      swap1\n      sstore\n        /* \"MyContract101.sol\":201:220  return testA = true */\n      swap1\n      pop\n        /* \"MyContract101.sol\":149:228  function changeBool() public returns (bool){... */\n      swap1\n      jump\t// out\n        /* \"MyContract101.sol\":92:109  bool public testA */\n    tag_12:\n      0x00\n      dup1\n      sload\n      swap1\n      0x0100\n      exp\n      swap1\n      div\n      0xff\n      and\n      dup2\n      jump\t// out\n        /* \"MyContract101.sol\":116:134  uint8 public testB */\n    tag_15:\n      0x00\n      0x01\n      swap1\n      sload\n      swap1\n      0x0100\n      exp\n      swap1\n      div\n      0xff\n      and\n      dup2\n      jump\t// out\n        /* \"MyContract101.sol\":236:319  function changeTestB() public returns (uint8) {... */\n    tag_19:\n        /* \"MyContract101.sol\":275:280  uint8 */\n      0x00\n        /* \"MyContract101.sol\":309:311  23 */\n      0x17\n        /* \"MyContract101.sol\":300:305  testB */\n      0x00\n      0x01\n        /* \"MyContract101.sol\":300:311  testB =  23 */\n      0x0100\n      exp\n      dup2\n      sload\n      dup2\n      0xff\n      mul\n      not\n      and\n      swap1\n      dup4\n      0xff\n      and\n      mul\n      or\n      swap1\n      sstore\n        /* \"MyContract101.sol\":293:311  return testB =  23 */\n      swap1\n      pop\n        /* \"MyContract101.sol\":236:319  function changeTestB() public returns (uint8) {... */\n      swap1\n      jump\t// out\n        /* \"#utility.yul\":7:97   */\n    tag_23:\n        /* \"#utility.yul\":41:48   */\n      0x00\n        /* \"#utility.yul\":84:89   */\n      dup2\n        /* \"#utility.yul\":77:90   */\n      iszero\n        /* \"#utility.yul\":70:91   */\n      iszero\n        /* \"#utility.yul\":59:91   */\n      swap1\n      pop\n        /* \"#utility.yul\":7:97   */\n      swap2\n      swap1\n      pop\n      jump\t// out\n        /* \"#utility.yul\":103:212   */\n    tag_24:\n        /* \"#utility.yul\":184:205   */\n      tag_30\n        /* \"#utility.yul\":199:204   */\n      dup2\n        /* \"#utility.yul\":184:205   */\n      tag_23\n      jump\t// in\n    tag_30:\n        /* \"#utility.yul\":179:182   */\n      dup3\n        /* \"#utility.yul\":172:206   */\n      mstore\n        /* \"#utility.yul\":103:212   */\n      pop\n      pop\n      jump\t// out\n        /* \"#utility.yul\":218:428   */\n    tag_10:\n        /* \"#utility.yul\":305:309   */\n      0x00\n        /* \"#utility.yul\":343:345   */\n      0x20\n        /* \"#utility.yul\":332:341   */\n      dup3\n        /* \"#utility.yul\":328:346   */\n      add\n        /* \"#utility.yul\":320:346   */\n      swap1\n      pop\n        /* \"#utility.yul\":356:421   */\n      tag_32\n        /* \"#utility.yul\":418:419   */\n      0x00\n        /* \"#utility.yul\":407:416   */\n      dup4\n        /* \"#utility.yul\":403:420   */\n      add\n        /* \"#utility.yul\":394:400   */\n      dup5\n        /* \"#utility.yul\":356:421   */\n      tag_24\n      jump\t// in\n    tag_32:\n        /* \"#utility.yul\":218:428   */\n      swap3\n      swap2\n      pop\n      pop\n      jump\t// out\n        /* \"#utility.yul\":434:520   */\n    tag_25:\n        /* \"#utility.yul\":469:476   */\n      0x00\n        /* \"#utility.yul\":509:513   */\n      0xff\n        /* \"#utility.yul\":502:507   */\n      dup3\n        /* \"#utility.yul\":498:514   */\n      and\n        /* \"#utility.yul\":487:514   */\n      swap1\n      pop\n        /* \"#utility.yul\":434:520   */\n      swap2\n      swap1\n      pop\n      jump\t// out\n        /* \"#utility.yul\":526:638   */\n    tag_26:\n        /* \"#utility.yul\":609:631   */\n      tag_35\n        /* \"#utility.yul\":625:630   */\n      dup2\n        /* \"#utility.yul\":609:631   */\n      tag_25\n      jump\t// in\n    tag_35:\n        /* \"#utility.yul\":604:607   */\n      dup3\n        /* \"#utility.yul\":597:632   */\n      mstore\n        /* \"#utility.yul\":526:638   */\n      pop\n      pop\n      jump\t// out\n        /* \"#utility.yul\":644:858   */\n    tag_17:\n        /* \"#utility.yul\":733:737   */\n      0x00\n        /* \"#utility.yul\":771:773   */\n      0x20\n        /* \"#utility.yul\":760:769   */\n      dup3\n        /* \"#utility.yul\":756:774   */\n      add\n        /* \"#utility.yul\":748:774   */\n      swap1\n      pop\n        /* \"#utility.yul\":784:851   */\n      tag_37\n        /* \"#utility.yul\":848:849   */\n      0x00\n        /* \"#utility.yul\":837:846   */\n      dup4\n        /* \"#utility.yul\":833:850   */\n      add\n        /* \"#utility.yul\":824:830   */\n      dup5\n        /* \"#utility.yul\":784:851   */\n      tag_26\n      jump\t// in\n    tag_37:\n        /* \"#utility.yul\":644:858   */\n      swap3\n      swap2\n      pop\n      pop\n      jump\t// out\n\n    auxdata: 0xa2646970667358221220b9ef65630fa30851707b37ce23b6f9ae5a07121e70e7648e183bc6d8b3ce71dd64736f6c634300080c0033\n}\n",
				"bytecode": {
					"linkReferences": {},
					"object": "608060405234801561001057600080fd5b506101d2806100206000396000f3fe608060405234801561001057600080fd5b506004361061004c5760003560e01c80635de24c671461005157806371dd626b1461006f578063925ea78d1461008d578063ae5e3e19146100ab575b600080fd5b6100596100c9565b604051610066919061014a565b60405180910390f35b6100776100e9565b604051610084919061014a565b60405180910390f35b6100956100fa565b6040516100a29190610181565b60405180910390f35b6100b361010d565b6040516100c09190610181565b60405180910390f35b600060016000806101000a81548160ff0219169083151502179055905090565b60008054906101000a900460ff1681565b600060019054906101000a900460ff1681565b60006017600060016101000a81548160ff021916908360ff1602179055905090565b60008115159050919050565b6101448161012f565b82525050565b600060208201905061015f600083018461013b565b92915050565b600060ff82169050919050565b61017b81610165565b82525050565b60006020820190506101966000830184610172565b9291505056fea2646970667358221220b9ef65630fa30851707b37ce23b6f9ae5a07121e70e7648e183bc6d8b3ce71dd64736f6c634300080c0033",
					"opcodes": "PUSH1 0x80 PUSH1 0x40 MSTORE CALLVALUE DUP1 ISZERO PUSH2 0x10 JUMPI PUSH1 0x0 DUP1 REVERT JUMPDEST POP PUSH2 0x1D2 DUP1 PUSH2 0x20 PUSH1 0x0 CODECOPY PUSH1 0x0 RETURN INVALID PUSH1 0x80 PUSH1 0x40 MSTORE CALLVALUE DUP1 ISZERO PUSH2 0x10 JUMPI PUSH1 0x0 DUP1 REVERT JUMPDEST POP PUSH1 0x4 CALLDATASIZE LT PUSH2 0x4C JUMPI PUSH1 0x0 CALLDATALOAD PUSH1 0xE0 SHR DUP1 PUSH4 0x5DE24C67 EQ PUSH2 0x51 JUMPI DUP1 PUSH4 0x71DD626B EQ PUSH2 0x6F JUMPI DUP1 PUSH4 0x925EA78D EQ PUSH2 0x8D JUMPI DUP1 PUSH4 0xAE5E3E19 EQ PUSH2 0xAB JUMPI JUMPDEST PUSH1 0x0 DUP1 REVERT JUMPDEST PUSH2 0x59 PUSH2 0xC9 JUMP JUMPDEST PUSH1 0x40 MLOAD PUSH2 0x66 SWAP2 SWAP1 PUSH2 0x14A JUMP JUMPDEST PUSH1 0x40 MLOAD DUP1 SWAP2 SUB SWAP1 RETURN JUMPDEST PUSH2 0x77 PUSH2 0xE9 JUMP JUMPDEST PUSH1 0x40 MLOAD PUSH2 0x84 SWAP2 SWAP1 PUSH2 0x14A JUMP JUMPDEST PUSH1 0x40 MLOAD DUP1 SWAP2 SUB SWAP1 RETURN JUMPDEST PUSH2 0x95 PUSH2 0xFA JUMP JUMPDEST PUSH1 0x40 MLOAD PUSH2 0xA2 SWAP2 SWAP1 PUSH2 0x181 JUMP JUMPDEST PUSH1 0x40 MLOAD DUP1 SWAP2 SUB SWAP1 RETURN JUMPDEST PUSH2 0xB3 PUSH2 0x10D JUMP JUMPDEST PUSH1 0x40 MLOAD PUSH2 0xC0 SWAP2 SWAP1 PUSH2 0x181 JUMP JUMPDEST PUSH1 0x40 MLOAD DUP1 SWAP2 SUB SWAP1 RETURN JUMPDEST PUSH1 0x0 PUSH1 0x1 PUSH1 0x0 DUP1 PUSH2 0x100 EXP DUP2 SLOAD DUP2 PUSH1 0xFF MUL NOT AND SWAP1 DUP4 ISZERO ISZERO MUL OR SWAP1 SSTORE SWAP1 POP SWAP1 JUMP JUMPDEST PUSH1 0x0 DUP1 SLOAD SWAP1 PUSH2 0x100 EXP SWAP1 DIV PUSH1 0xFF AND DUP2 JUMP JUMPDEST PUSH1 0x0 PUSH1 0x1 SWAP1 SLOAD SWAP1 PUSH2 0x100 EXP SWAP1 DIV PUSH1 0xFF AND DUP2 JUMP JUMPDEST PUSH1 0x0 PUSH1 0x17 PUSH1 0x0 PUSH1 0x1 PUSH2 0x100 EXP DUP2 SLOAD DUP2 PUSH1 0xFF MUL NOT AND SWAP1 DUP4 PUSH1 0xFF AND MUL OR SWAP1 SSTORE SWAP1 POP SWAP1 JUMP JUMPDEST PUSH1 0x0 DUP2 ISZERO ISZERO SWAP1 POP SWAP2 SWAP1 POP JUMP JUMPDEST PUSH2 0x144 DUP2 PUSH2 0x12F JUMP JUMPDEST DUP3 MSTORE POP POP JUMP JUMPDEST PUSH1 0x0 PUSH1 0x20 DUP3 ADD SWAP1 POP PUSH2 0x15F PUSH1 0x0 DUP4 ADD DUP5 PUSH2 0x13B JUMP JUMPDEST SWAP3 SWAP2 POP POP JUMP JUMPDEST PUSH1 0x0 PUSH1 0xFF DUP3 AND SWAP1 POP SWAP2 SWAP1 POP JUMP JUMPDEST PUSH2 0x17B DUP2 PUSH2 0x165 JUMP JUMPDEST DUP3 MSTORE POP POP JUMP JUMPDEST PUSH1 0x0 PUSH1 0x20 DUP3 ADD SWAP1 POP PUSH2 0x196 PUSH1 0x0 DUP4 ADD DUP5 PUSH2 0x172 JUMP JUMPDEST SWAP3 SWAP2 POP POP JUMP INVALID LOG2 PUSH5 0x6970667358 0x22 SLT KECCAK256 0xB9 0xEF PUSH6 0x630FA3085170 PUSH28 0x37CE23B6F9AE5A07121E70E7648E183BC6D8B3CE71DD64736F6C6343 STOP ADDMOD 0xC STOP CALLER "
				},
				"gasEstimates": {
					"creation": {
						"codeDepositCost": "93200",
						"executionCost": "141",
						"totalCost": "93341"
					},
					"external": {
						"changeBool()": "24583",
						"changeTestB()": "24699",
						"testA()": "2468",
						"testB()": "2543"
					}
				},
				"methodIdentifiers": {
					"changeBool()": "5de24c67",
					"changeTestB()": "ae5e3e19",
					"testA()": "71dd626b",
					"testB()": "925ea78d"
				}
			},
			"storageLayout": {
				"storage": [
					{
						"astId": 3,
						"contract": "MyContract101.sol:MyContract101",
						"label": "testA",
						"offset": 0,
						"slot": "0",
						"type": "t_bool"
					},
					{
						"astId": 5,
						"contract": "MyContract101.sol:MyContract101",
						"label": "testB",
						"offset": 1,
						"slot": "0",
						"type": "t_uint8"
					}
				],
				"types": {
					"t_bool": {
						"encoding": "inplace",
						"label": "bool",
						"numberOfBytes": "1"
					},
					"t_uint8": {
						"encoding": "inplace",
						"label": "uint8",
						"numberOfBytes": "1"
					}
				}
			},
			"userdoc": {
				"kind": "user",
				"methods": {},
				"version": 1
			}
		}
	}
}